:020000040800F2
:1000000018080020890100081F1C00088319000837
:100010001D1C0008F3020008F52100080000000084
:10002000000000000000000000000000231C000889
:10003000F502000800000000211C0008251C000833
:10004000A3010008A3010008A3010008A301000800
:10005000A3010008A3010008A3010008A3010008F0
:10006000A3010008A3010008A3010008A3010008E0
:10007000A3010008A3010008A3010008A3010008D0
:10008000A3010008A3010008A3010008A3010008C0
:10009000A3010008A3010008A3010008A3010008B0
:1000A000A3010008A3010008A30100087D1C0008AB
:1000B000A3010008891C0008A3010008A30100088F
:1000C000A3010008A3010008A3010008A301000880
:1000D000A3010008A3010008A3010008E92100080A
:1000E000A3010008A3010008A301000800F002F822
:1000F00000F03AF80AA090E8000C82448344AAF188
:100100000107DA4501D100F02FF8AFF2090EBAE885
:100110000F0013F0010F18BFFB1A43F0010318473B
:1001200080240000A0240000103A24BF78C878C1C1
:10013000FAD8520724BF30C830C144BF04680C60ED
:10014000704700000023002400250026103A28BF35
:1001500078C1FBD8520728BF30C148BF0B60704739
:100160001FB51FBD10B510BD00F08AF81146FFF78E
:10017000F7FF02F05FF800F0A8F803B4FFF7F2FF12
:1001800003BC00F0AFF80000094880470948004769
:10019000FEE7FEE7FEE7FEE7FEE7FEE7FEE7FEE737
:1001A000FEE7FEE704480549054A064B7047000094
:1001B000791C0008ED000008180200201808002033
:1001C000180400201804002010B5203AC0F00B805D
:1001D000B1E81850203AA0E81850B1E81850A0E84B
:1001E0001850BFF4F5AF5FEA027C24BFB1E81850A5
:1001F000A0E8185044BF18C918C0BDE810405FEA15
:10020000827C24BF51F8043B40F8043B08BF704790
:10021000D20728BF31F8023B48BF11F8012B28BF95
:1002200020F8023B48BF00F8012B70474FF0000256
:1002300000B5134694469646203922BFA0E80C50DC
:10024000A0E80C50B1F12001BFF4F7AF090728BFB7
:10025000A0E80C5048BF0CC05DF804EB890028BF33
:1002600040F8042B08BF704748BF20F8022B11F05C
:10027000804F18BF00F8012B7047704770477047D8
:10028000754600F02BF8AE4605006946534620F04F
:100290000700854618B020B5FFF784FFBDE8204071
:1002A0004FF000064FF000074FF000084FF0000B32
:1002B00021F00701AC46ACE8C009ACE8C009ACE8E5
:1002C000C009ACE8C0098D46704710B50446AFF3CD
:1002D00000802046BDE81040FFF74FBF0048704740
:1002E000B401002001491820ABBEFEE72600020041
:1002F0007047FEE770470000094940F2BB23C86819
:10030000A0F215529A4201D2022007E0A0F28530F5
:10031000B0F5C77F01D8012000E000204870704789
:100320000000002070B5184C4FF0FF3520680561C3
:100330000021204600F092FE0421204600F08EFEAF
:1003400020680169056120680169C9434907FBD438
:100350000169416B0D4C61600269D2435207FBD4C5
:10036000806BA060884202D2C943084470BD00215E
:10037000054800F0CFFE0421034800F0CBFED4E98D
:100380000110401A70BD0000200000200000002075
:1003900010B590F821100022022905D004218163B4
:1003A00080F82020012010BD01680B6823F00E03A7
:1003B0000B6001680B6823F001030B6090F840307C
:1003C000C46B012101FA03F3636080F8211080F807
:1003D0002020104610BD000010B590F82110002418
:1003E000022903D00421816301243DE001680A68E9
:1003F00022F00E020A6001680A6822F001020A6017
:100400001A4A0168914201D1012121E0174A1432B0
:10041000914201D110211BE0144A2832914201D1AE
:10042000891515E0114A3C32914201D189140FE03F
:100430000E4A5032914202D14FF4803108E00B4A0B
:100440006432914202D14FF4801101E04FF080718B
:10045000064A083A5160012180F82110002180F8F5
:100460002010416B01B18847204610BD08000240B2
:100470002DE9F84FDFF8B8910024A9F1040B2346C9
:100480000F2709F1040AABF1040EC9E00125A540CC
:100490002A40AA427DD1674ED1F804C0ACEB0608D1
:1004A000B44532D014DCBCF1030F3AD009DCBCF106
:1004B000000F2AD0BCF1010F1CD0BCF1020F31D1CA
:1004C0001DE0BCF1110F17D0BCF1120F2AD119E0B9
:1004D000B8F5881F19D006DCB8F5803F15D0B8F5FF
:1004E000801F1FD111E0B8F5001F0ED0B8F5041F12
:1004F00018D10AE0CB6815E0CB681B1D12E0CB6871
:1005000008330FE0CB680C330CE08B682BB1012B68
:100510004FF0080303D0456104E0042302E00561C5
:1005200000E00023FF2A01D8064601E000F104069E
:100530004FEA840501D9A5F12005D6F8008007FA15
:1005400005FC28EA0C0803FA05F548EA0508C6F890
:1005500000804D68ED0062D5374DAE6946F001066A
:10056000AE61AD6924F0030605F001050095334D39
:1005700006EB050CDCF80850A607360F07FA06F85C
:1005800025EA0805DFF8B880404503D14FF00008A0
:1005900017E044E0DFF8AC80404502D14FF001089D
:1005A0000FE0DFF8A480404502D14FF0020808E0D8
:1005B000DFF89880404502D14FF0030801E04FF08A
:1005C000040808FA06F848EA0508CCF808804D68DF
:1005D000D9F80060ED024D4601D5164300E0964380
:1005E0002E604D68DAF80060AD02554601D516431D
:1005F00000E096432E604D68DBF80060AD035D4679
:1006000001D5164300E096432E604D68DEF8006089
:10061000ED03754601D5164300E096432E60641C39
:100620000D682A46E5407FF431AFBDE8F88F000041
:1006300008040140000011100010024000000140B9
:1006400000080140000C014000100140001401406E
:10065000014880687047000010000020024881684F
:10066000027811448160704710000020074810B5DF
:10067000016841F010010160032000F075F80F20BF
:1006800000F006F800F024F8002010BD0020024021
:1006900070B50D4D04464FF47A712878B1FBF0F037
:1006A0000A490968B1FBF0F000F0DCFA48B9102CF7
:1006B00007D200222146501E00F036F800206C6060
:1006C00070BD012070BD0000100000201C00002043
:1006D0000C4808B5816941F001018161816901F02F
:1006E00001010091C16941F08051C161C06900F010
:1006F000805000900448416821F0E06141F00071B1
:10070000416008BD0010024000000140002809DBE4
:1007100000F01F02012191404009800000F1E0201B
:10072000C0F8001170470000F0B40E4B1B680C4677
:10073000C3F30223C3F10705042D00D90425191DB5
:10074000072901D2002300E0DB1E012606FA05F18D
:10075000491E214099409E40761E16403143F0BC10
:1007600001F049BD0CED00E0064900F00702086801
:100770004FF6FF03184040EA0220034A1043086086
:10078000704700000CED00E00000FA052DE9F0478D
:100790000F46050061D0434E306800F00700B842B4
:1007A00009D2306820F0070038433060306800F02C
:1007B0000700B84251D128683B4C810712D5400749
:1007C00003D5606840F4E06060602878000703D5D6
:1007D000606840F4605060606068A96820F0F000D4
:1007E000084360602878C00728D06868012810D0C6
:1007F0002168022810D0890700292EDA616821F0CB
:10080000030101436160FFF723FF804641F288390D
:100810000DE021688903EFE78901EDE7FFF718FF95
:10082000A0EB0801494502D90320BDE8F0876068C4
:10083000696800F00C00B0EB810FEFD1306800F078
:100840000700B8420BD9306820F007003843306009
:10085000306800F00700B84201D00120E5E72878B1
:10086000400705D56068E96820F4E06008436060EF
:100870002878000706D56068296920F4605040EAAE
:10088000C100606000F038F86168084AC1F30311E4
:10089000515CC8400649086006480068FFF7F8FE4A
:1008A0000020C2E700200240001002408625000818
:1008B0001C00002014000020044805490068496815
:1008C000044AC1F30221515CC84070471C0000205B
:1008D0000010024096250008044805490068496850
:1008E000044AC1F3C221515CC84070471C0000207B
:1008F00000100240962500080E4A51680E4801F08B
:100900000C03042B11D0082B0FD10C48C1F38343E7
:10091000C903C05C0AD55168084AC1F34041921E20
:10092000515C054A5043B0FBF1F07047044948431D
:10093000704700000010024000127A00762500087F
:1009400000093D002DE9F84F040070D02078C04D1B
:10095000C00749D06868C0F38100012807D06868E3
:10096000C0F38100022809D16868C00306D5286851
:10097000800339D560680028E7D035E06068B0F5BD
:10098000803F0BD010B1B0F5A02F11D0286820F413
:1009900080302860286820F4802002E0286840F435
:1009A00080302860606890B1FFF752FE06460AE08A
:1009B000286840F480202860F0E700BFFFF748FE79
:1009C000801B642873D828688003F7D50CE0FFF7F4
:1009D0003FFE064605E000BFFFF73AFE801B642895
:1009E000F0D828688003F7D420789A4E80074FF01B
:1009F00001094FF0000839D5686810F00C0F07D0D6
:100A00006868C0F38100022809D16868C00306D471
:100A10002868800714D52069012808D110E02069D2
:100A2000B0B1C6F80090FFF713FE074605E00AE1F3
:100A3000FFF70EFEC01B0228C4D828688007F7D530
:100A40002868616920F0F80040EAC10028600DE0E4
:100A5000C6F80080FFF7FCFD074604E0FFF7F8FD4D
:100A6000C01B022823D828688007F7D42078000705
:100A70002CD57948A169D9B1C0F80090FFF7E8FDFD
:100A8000074604E0FFF7E4FDC01B02280FD8686AA0
:100A90008007F7D571484FF4FA510068B0FBF1F0C8
:100AA000009000BF0098411E0091FAD20EE080E055
:100AB000C0F80080FFF7CCFD074604E0FFF7C8FD53
:100AC000C01B022875D8686A8007F7D420784007D1
:100AD00060D5E8690027C00008D4E86940F080507C
:100AE000E861E869012700F0805000905C480168E7
:100AF000C90513D40168834641F480710160FFF792
:100B0000A7FD824606E000BFFFF7A2FDA0EB0A00AA
:100B100064284ED8DBF80000C005F5D5E068012850
:100B20000AD008B1052813D0286A20F001002862F5
:100B3000286A20F0040002E0286A40F001002862E0
:100B4000E06841F2883B98B1FFF782FD82460BE0F6
:100B5000286A40F004002862EEE700BFFFF778FD46
:100B6000A0EB0A0159455AD8286A8007F6D50CE04F
:100B7000FFF76EFD824605E0FFF76AFDA0EB0A0174
:100B800059454CD8286A8007F6D41FB1E86920F08F
:100B90008050E861E06988B36968C1F38101022986
:100BA00044D00228C6F8608004D0FFF751FD044607
:100BB00038E034E0FFF74CFD074604E0FFF748FD5E
:100BC000C01B02282BD828688001F7D4206AB0F512
:100BD000803F05D16868A16820F400300843686050
:100BE000D4E908010843696821F474110843686076
:100BF000C6F86090FFF72CFD044606E025E000BF34
:100C0000FFF726FD001B022809D828688001F7D5C8
:100C10001BE000BFFFF71CFD001B022802D90320C8
:100C2000BDE8F88F28688001F4D40EE00128F7D0E1
:100C30006868226A00F48031914204D1616A00F44C
:100C40007010884201D00120EAE70020E8E70000A8
:100C50000010024000004242800442421C0000207A
:100C60000070004010B5401EB0F1807F01D301201C
:100C700010BD4FF0E02460610F21601701F0BBFA56
:100C80000020A06107202061002010BD7047704740
:100C900070B590F83C20012A26D0012480F83C4011
:100CA000022280F83D2003685A689D6822F0700691
:100CB0000A6832435A600D4B02689A4208D0B2F17A
:100CC000804F05D00A4B9A4202D00A4B9A4204D177
:100CD000496825F080031943916080F83D40002168
:100CE00080F83C10084670BD022070BD002C014009
:100CF000000400400008004010B5040003D094F840
:100D00003D0010B107E0012010BD002084F83C0038
:100D1000204600F01FF8022084F83D00211D2068C5
:100D200000F0B8FF012084F8460084F83E0084F803
:100D30003F0084F8400084F8410084F8420084F8C1
:100D4000430084F8440084F8450084F83D00002006
:100D500010BD000000B585B0002100910191029105
:100D60000391224A0168224891421DD1816941F4D0
:100D700000618161816901F400610491816941F040
:100D8000040181618069694600F0040004904FF419
:100D9000A06000901748FFF76BFB002211461B2054
:100DA000FFF7C2FC1B2013E0B1F1804F14D0124AB0
:100DB00091420FD1C16941F00201C161C0690022B5
:100DC00000F00200049011461D20FFF7ADFC1D202D
:100DD000FFF79CFC05B000BDC16941F00101C16194
:100DE000C06900F001000490F4E70000002C01400D
:100DF00000100240000801400004004070B50446A5
:100E000090F83C000025012817D0012684F83C60AA
:100E1000022084F83D002068826822F0770222F4E4
:100E20007F4282600868502838D00DDC20284FD0DF
:100E300005DC90B3102811D14AE0022070BD3028A3
:100E400046D040280AD13BE060282FD070280DD032
:100E5000B0F5805F03D0B0F5005F12D0012584F8B3
:100E60003D60002084F83C00284670BDCB68D1E985
:100E70000121206800F057FF2068816841F0770168
:100E800009E0CB68D1E90121206800F04CFF20681F
:100E9000816841F480418160E1E719E0CA684968EE
:100EA000206800F0F5FF5021206806E0CA68496814
:100EB000206801F02BF86021206800F03EFFCEE7AB
:100EC000CA684968206800F0E3FF40212068F4E721
:100ED000226801461046F0E770472DE9F0410546CB
:100EE00090F83C0000260C46012810D0012085F81F
:100EF0003C0072B1042A1CD0082A2CD00C2A50D0F5
:100F00000126002085F83C003046BDE8F081022033
:100F1000FBE7D4E90012E368286800F0CBFF2868FB
:100F2000816921F00C01816128688169A2681143FF
:100F30000FE0D4E90012E368286800F0F9FF2868A0
:100F4000816921F44061816128688169A26841EA70
:100F500002218161D5E72868D4E9002C277B036A48
:100F6000016A21F480710162C16923F4007321F0E8
:100F7000030141EA0C0121F0F00C39074FF400772E
:100F80004CEA116107EA02221A43C1610262286831
:100F9000C16921F00C01C1612868C169A2681143CF
:100FA0002BE02868D4E90021E768036AD0F820C064
:100FB0002CF4805CC0F820C0D0F81CC023F400538F
:100FC0002CF4407C4CEA012121F4704C4FF6FF7167
:100FD00001EA07314FF4005741EA0C0107EA0232F7
:100FE0001A43C16102622868C16921F44061C1618C
:100FF0002868C169A26841EA0221C16181E710B590
:10100000040003D094F83D0010B107E0012010BDAA
:10101000002084F83C00204600F01EF8022084F8EE
:101020003D00211D206800F035FE012084F84600B7
:1010300084F83E0084F83F0084F8400084F84100C2
:1010400084F8420084F8430084F8440084F84500A2
:1010500084F83D00002010BD7047000010B5044624
:1010600051B104290DD0082910D094F8410094F80A
:101070004520012811D10EE094F83E0094F842205A
:10108000F7E794F83F0094F84320F2E794F8400023
:1010900094F84420EDE7012A01D0012010BD022080
:1010A00019B3042926D0082929D084F8410084F8EE
:1010B00045000122206800F029FE1349206888427B
:1010C00008D0B0F1804F05D01049884202D01049B5
:1010D000884204D1816801F00701062903D0016824
:1010E00041F001010160002010BD84F83E0084F849
:1010F0004200DEE784F83F0084F84300D9E784F833
:10110000400084F84400D4E7002C01400004004073
:101110000008004030B504460D460068002200F08B
:10112000F5FD2068016A41F21112114207D1016AEE
:101130009210114203D1016821F0010101600122E6
:1011400045B1042D09D0082D0AD004F8412F227191
:10115000002030BD04F83E2FF9E704F83F2FF6E7F2
:1011600004F8402FF3E72DE9F04104460068C66813
:1011700005694FF00007A90713D5B10711D5F91E6E
:10118000016101202077206880698007204602D015
:10119000FFF7A2FE04E000F0C7F8204600F059F97E
:1011A0002777680716D5700714D521686FF00400FB
:1011B0000861022020772068806910F4407F204673
:1011C00002D0FFF789FE04E000F0AEF8204600F000
:1011D00040F92777280715D5300713D521686FF018
:1011E00008000861042020772068C0698007204635
:1011F00002D0FFF771FE04E000F096F8204600F000
:1012000028F92777E80616D5F00614D521686FF07F
:1012100010000861082020772068C06910F4407F22
:10122000204602D0FFF758FE04E000F07DF820468B
:1012300000F00FF92777E80708D0F00706D02168FB
:101240006FF001000861204600F052F9280608D529
:10125000300606D521686FF0800008612046FFF750
:1012600015FD680608D5700606D521686FF04000A8
:101270000861204600F03DF9A8060AD5B00608D559
:1012800021686FF0200008612046BDE8F041FFF7BB
:10129000FEBCBDE8F081000010B586B000210091D1
:1012A00001910291039102681B4902241B48B2F18B
:1012B000804F23D01A4B9A421ED18A6942F0040211
:1012C0008A618A6902F0040204928A6942F0080283
:1012D0008A618969039401F008010491C021CDE974
:1012E00000146946FFF7C4F80120CDE900046946FF
:1012F0000C480394FFF7BCF806B010BD8A6942F0B1
:1013000004028A618969039401F0040104910721B0
:10131000CDE900146946EDE70010024000080140E5
:1013200000040040000C0140704770B5044690F87E
:101330003C0000260D4601280FD0012084F83C0017
:101340006AB1042A1DD0082A2FD00C2A3FD00126CA
:10135000002084F83C00304670BD022070BD20683B
:1013600000F0F4FC2068816941F008018161206887
:10137000816921F004018161206881692A69114332
:1013800011E0206800F00AFD2068816941F40061E5
:1013900081612068816921F48061816120688169AF
:1013A0002A6941EA02218161D2E7206800F022FD2A
:1013B0002068C16941F00801C1612068C16921F05C
:1013C0000401C1612068C1692A69114311E02068E4
:1013D00000F03CFD2068C16941F40061C1612068F2
:1013E000C16921F48061C1612068C1692A6941EA4B
:1013F0000221C161ACE710B5040003D094F83D00B0
:1014000010B107E0012010BD002084F83C00204608
:1014100000F01EF8022084F83D00211D206800F035
:1014200039FC012084F8460084F83E0084F83F002F
:1014300084F8400084F8410084F8420084F84300B6
:1014400084F8440084F8450084F83D00002010BD75
:101450007047704710B50446022249B104290ED0E6
:10146000082913D094F84100012816D0012010BD9E
:1014700094F83E000128F9D184F83E200FE094F85A
:101480003F000128F2D184F83F2008E094F84000A2
:101490000128EBD184F8402001E084F841200122AA
:1014A000206800F033FC0F492068884203D1426C69
:1014B00042F4004242642068884208D0B0F1804F74
:1014C00005D00949884202D00849884204D1816880
:1014D00001F00701062903D0016841F00101016014
:1014E000002010BD002C0140000400400008004016
:1014F0007047704770477047F8B501680446086840
:10150000CA684B6910F00F0F4FF0000559D003F077
:10151000010602F49077374365D0C10705D0D105A5
:1015200003D5616C41F001016164410705D5D9071C
:1015300003D0616C41F002016164810705D5D907D0
:1015400003D0616C41F004016164010707D502F02A
:101550002001314303D0616C41F008016164616C8A
:1015600000293AD0800604D5900602D5204600F026
:1015700029FD20684069616CC0F38010090700D420
:1015800060B3204600F0F7FC20684069400621D592
:101590002068143050E8001F21F0400140E800129C
:1015A000002AF5D1E06BA8B16D494163E06BFEF70D
:1015B00013FF002811D0E06B416B01B0BDE8F04093
:1015C000084783060FD593060DD52046BDE8F840A1
:1015D00000F0F8BC2046FFF78EFFF8BD2046FFF76D
:1015E0008AFF6564F8BD266B2023012E7CD1C606D8
:1015F0007AD5D60678D508684868009048694FF0D3
:101600000206400640D5E16B086840680004000C03
:10161000E8D0A28D8242E5D9E085886920282DD0C6
:1016200020680C3050E8001F21F4807140E800125F
:10163000002AF5D12068143050E8001F21F0010184
:1016400040E80012002AF5D12068143050E8001F4D
:1016500021F0400140E80012002AF5D184F8423020
:10166000256320680C3050E8001F21F0100140E88D
:101670000012002AF5D1E06BFEF78AFE6663A08DAA
:10168000E18D401A81B22AE0A08DE18D401A81B22D
:10169000E08D0028A6D00029A4D022680C3252E8A0
:1016A000000F20F4907042E80007002FF5D1206869
:1016B000143050E8002F22F0010240E80027002FEC
:1016C000F5D184F84230256320680C3050E8002FB3
:1016D00022F0100240E80023002BF5D1666320467B
:1016E000FFF708FFF8BDFFE705062BD5150629D53E
:1016F00094F841002128F5D1A068B0F5805F01D1B0
:101700002069B0B1206A411C2162216800784860DC
:10171000E08C401E0004000CE084E3D12068C16826
:1017200021F08001C1602068C16841F04001C160C2
:10173000D8E7206A0088C0F308004860206A801C4F
:101740002062E5E74006CDD55006CBD5CA682046D5
:1017500022F04002CA6084F8413000F011F9C1E77C
:10176000671F000870B5040004D094F841000025FC
:1017700010B106E0012070BD84F84050204600F012
:1017800023F8242084F841002068C16821F4005126
:10179000C160204600F078FC2068016921F4904186
:1017A00001612068416921F02A0141612068C16816
:1017B00041F40051C1606564202084F8410084F840
:1017C00042006563002070BD30B585B000240094F0
:1017D0000194029403940068184988422CD1184857
:1017E000C16941F48021C161C16901F48021049182
:1017F000816941F0080181618069124D00F00800A3
:1018000004904FF480600090022001900320039028
:1018100069462846FEF72CFEE814CDE90004694627
:1018200028460294FEF724FE002211462720FEF7E8
:101830007BFF2720FEF76AFF05B030BD004800405F
:1018400000100240000C014090F84230202B01D0E3
:101850000220704721B11AB10023036300F070BC6D
:101860000120704700B50068154985B0884214D141
:1018700014490878401CC0B2087029280FD94FF0CD
:10188000140211A16846FEF79FFC642312226946E8
:10189000124800F025F800F0B1FD05B000BD04D1FC
:1018A00005B05DF804EB00F04DBD0C4905B04831C2
:1018B0000144012209485DF804EBFFF7C5BF0000B1
:1018C00000480040000000206C656E206572723A8E
:1018D000206F7665722034310D0A0000F800002078
:1018E0002DE9F843044690F84100984616460D4607
:1018F000202802D00220BDE8F88385B17EB1002007
:101900006064212084F84100FEF7A2FEA68481468F
:10191000E684A0682027B0F5805F02D003E00120B4
:10192000E9E7206910B12E4600250EE000260CE004
:101930008021204600F01FFCA8B9C6B116F8010BA3
:1019400021684860E08C401EE084E08C4B464FF0FC
:101950000002CDF800800028EAD14FF04001204677
:1019600000F009FC40B184F841700320C3E735F86A
:10197000020BC0F30800E3E784F841700020BAE7E7
:101980007047FEE770B58AB000243348049405948C
:1019900006940794089409940094019402942D49A4
:1019A000039401600721C0E901144FF6FF71C0E9FB
:1019B00003148021C0E90541FFF79EF908B172B612
:1019C000FEE74FF48050049004A92348FFF716FA6D
:1019D00008B172B6FEE72048FFF711FB08B172B6F6
:1019E000FEE7089408A91C480994FFF751F908B1CB
:1019F00072B6FEE70126CDE9004602940022694650
:101A000015480394FFF769FA08B172B6FEE702259C
:101A100000950422694610480195FFF75EFA08B167
:101A200072B6FEE7CDE90046082269460A48FFF78C
:101A300054FA08B172B6FEE700950C2269460648D2
:101A40000195FFF74AFA002801D072B6FEE70AB006
:101A500070BD0000002C01402000002010B58EB0A9
:101A600000240794089409940A940B941C21684656
:101A70000C94FEF7DBFB26484FF080410160072104
:101A8000C0E9011444F61F61C0E90314802181619B
:101A9000FFF732F908B172B6FEE74FF480500790B5
:101AA00007A91B48FFF7AAF908B172B6FEE7184864
:101AB000FFF7A1FC08B172B6FEE70B940BA914481E
:101AC0000C94FFF7E5F808B172B6FEE76020CDE9A7
:101AD00000040294002269460D480494FFF725FC97
:101AE00008B172B6FEE7042269460948FFF71DFCFB
:101AF00008B172B6FEE7082269460548FFF715FCF3
:101B000008B172B6FEE70248FFF7C6FB0EB010BD83
:101B10006800002010B58EB0002407940894099442
:101B20000A940B941C2168460C94FEF77FFB27480F
:101B3000254901600721C0E9011444F61F61C0E98D
:101B4000031480218161FFF7D7F808B172B6FEE770
:101B50004FF48050079007A91C48FFF74FF908B1D0
:101B600072B6FEE71948FFF746FC08B172B6FEE709
:101B70000B940BA915480C94FFF78AF808B172B6BC
:101B8000FEE76020CDE900040294002269460F4878
:101B90000494FFF7CAFB08B172B6FEE70422694657
:101BA0000A48FFF7C2FB08B172B6FEE70822694691
:101BB0000648FFF7BAFB08B172B6FEE70348FFF725
:101BC0006BFB0EB010BD000000040040B000002010
:101BD000104810B50E4901604FF4E1314160002119
:101BE00081600C22C160C0E904128161C161FFF70C
:101BF000B9FD08B172B6FEE7074906480122097827
:101C000048300144BDE810404838FFF71DBE0000D1
:101C100000480040F800002000000020FEE7FEE73A
:101C200070477047FEF71ABD10B590B0282168467E
:101C3000FEF7FCFA14210AA8FEF7F8FA0220009039
:101C40000120049010200024059007946846FEF7B8
:101C500079FE08B172B6FEE70F20CDE90A040C94B4
:101C60000D9400210AA80E94FEF790FD002801D0E3
:101C700072B6FEE710B010BD704700000148FFF7D4
:101C800072BA0000200000200148FFF76CBA000083
:101C9000B0000020F0B50268194B1A4C1A4D4FF0F5
:101CA0008047984205D0B84203D0A04201D0A84254
:101CB00003D122F070064A683243984205D0B842F8
:101CC00003D0A04201D0A84203D122F44074CA68D4
:101CD00022434C6922F08002224302608A68C26279
:101CE0000A688262984201D1096901630121416158
:101CF0000169C90703D0016921F001010161F0BD4B
:101D0000002C0140000400400008004010B501F024
:101D10001F030121046A99408C430462016A9A40BE
:101D20001143016210BD10B5846842EA032224F415
:101D30007F440A432243826010BD826822F0700211
:101D40000A4342F0070181607047000030B5036A22
:101D5000026A22F0010202624268846924F073057B
:101D60000C682C4323F002058B682B430A4DA842D4
:101D70000BD123F00805CB6822F440722B434D6948
:101D800023F0040315438A692A4342608461496849
:101D90004163036230BD0000002C014030B5026A8F
:101DA000036A23F010030362436884690D6824F416
:101DB000E64444EA05248D6822F0200242EA051236
:101DC0000B4DA8420ED1CD6822F0800242EA0512E6
:101DD0004D6923F4406343EA85038D6922F0400294
:101DE00043EA85034360846149688163026230BDD0
:101DF000002C014030B5036A026A22F4807202624C
:101E00004268C46923F4007324F073050C682C4302
:101E10008D6843EA05230C4DA8420ED1CD6823F40A
:101E2000006343EA05234D6922F4405242EA051259
:101E30008D6923F4806342EA05124260C4614968F7
:101E4000C163036230BD0000002C014030B5046A5C
:101E5000026A22F4805202624268C3690D6823F468
:101E6000E64343EA05238D6824F4005444EA05342C
:101E7000064DA84204D14D6922F4804242EA8512FF
:101E80004260C36149680164046230BD002C0140B6
:101E900010B5036A046A24F001040462846924F022
:101EA000F00444EA021423F00A020A438461026245
:101EB00010BD000070B5056A046A24F001040462D4
:101EC00084690F4EB04208D0B0F1804F05D00D4E5E
:101ED000B04202D00C4EB04203D124F003041443AC
:101EE00001E044F001041A0724F0F00444EA12620D
:101EF00025F00A0301F00A0119438261016270BDF5
:101F0000002C0140000400400008004010B5036AA6
:101F1000046A24F010040462846923F0A00324F40A
:101F2000704444EA023243EA01118261016210BD49
:101F300030B5046A056A25F010050562856925F447
:101F4000407545EA022222F470454FF6FF7202EA1C
:101F5000033224F0A0032A43A02404EA0111194308
:101F60008261016230BD10B5406A0021C185C18423
:101F7000FFF7C1FA10BD01680C3151E8002F22F4BF
:101F8000907241E80023002BF5D10168143151E82B
:101F9000002F22F0010241E80023002BF5D1016B54
:101FA000012909D101680C3151E8002F22F01002FB
:101FB00041E80023002BF5D1202180F842100021B8
:101FC0000163704708B590F84210222901D0022021
:101FD00008BD82684FF480539A4201D1016921B152
:101FE000816A9A421BD04AB10AE00268816A52684B
:101FF000C2F308020A80816A891C08E0026972B192
:102000000268526802F07F020A70816A491C81628C
:10201000C18D491E0904090CC18503D01BE002686B
:102020005268F1E70168CA6822F02002CA600168BC
:10203000CA6822F48072CA6001684A6922F001020B
:102040004A61202180F8421000214163026B012A7D
:1020500003D0FFF707FC002008BD016301680C31C5
:1020600051E8002F22F0100241E80023002BF5D1A7
:1020700001680A68D20602D50A6849680091818D14
:10208000FFF738FAE7E7000070B504460068016919
:10209000E26821F44051114301612169A0680843BD
:1020A000616908432168CA6841F20C639A4302439C
:1020B000CA6020684169A26921F4407111434161FD
:1020C0001E492068884202D1FEF706FC01E0FEF7B7
:1020D000F3FB00EBC00101EB00126068642180009B
:1020E000B2FBF0F3B3FBF1F36FF018067343B2FBEE
:1020F000F0F5B2FBF0F605EB8305322303EB051593
:10210000B5FBF1F5B6FBF1F605F0F00505EB0615AC
:10211000B2FBF0F6B2FBF0F0B0FBF1F06FF018029A
:10212000504306EB800003EB0010B0FBF1F0216898
:1021300000F00F002844886070BD000000380140A6
:1021400081628285C28500214164222180F842108B
:10215000016921B10168CA6842F48072CA600168ED
:102160004A6942F001024A610068C16841F02001F9
:10217000C160002070472DE9F843984617460D4688
:102180000446089E24E0701C22D0FEF761FAA0EB02
:102190000800B0421AD8CEB12068C168490717D5E7
:1021A000802D15D0402D13D00168C94309070FD4E5
:1021B00001680025406800902046FFF7DCFE0820FB
:1021C000606484F840500120BDE8F8830320FBE7F9
:1021D0002068006835EA000004D00020B842D2D060
:1021E0000020F1E70120F9E70148FFF785B9000079
:1021F000F8000020FEE70907090E002804DB00F1C3
:10220000E02080F80014704700F00F0000F1E0209B
:1022100080F8141D704700000020054A0146535CF9
:10222000491C1844C9B2C0B22829F8D3704700002D
:102230004001002008B5FEF719FAFFF7F5FC324817
:10224000816941F020018161816901F020010091E3
:10225000816941F004018161816901F0040100910B
:10226000816941F008018161806900F008000090F7
:10227000FFF788FBFFF7F2FBFFF7AAFCFFF74AFC2A
:10228000224E234C40F2145506F14807FEF74AF857
:10229000E060FEF731F8E070A1780729F6D2DFE8B8
:1022A00001F0040A11171D2329000228EED130681D
:1022B0004563012004E00128E8D1306885630220ED
:1022C000A070E3E70228E1D13068C5630320F7E797
:1022D0000128DBD1306805640420F1E70228D5D15C
:1022E000386845630520EBE70128CFD1386885635E
:1022F0000620E5E70228C9D13868C5630020A07030
:1023000000F05CF8C2E70000001002406800002006
:10231000000000202DE9F0410948002401278678BB
:1023200007FA04F53542E0B202D000F0ADF801E062
:1023300000F078F8641CA4B2092CF1D3BDE8F08158
:10234000400100201FB5144C2078EB2802D16078A2
:10235000902806D011A10FC98DE80F0064230C222C
:102360000BE0FFF759FF94F8281081420DD00FA31E
:102370000FCB8DE80F0064230E22074869464838CA
:10238000FFF7AEFA00F03AF81FBDFFF7C3FFBDE854
:102390001F4000F033B80000400100206865616410
:1023A0006572206572720D0A000000006368656343
:1023B0006B73756D206572720D0A000010B50021F7
:1023C0000D48FFF747F804210B48FFF743F80821B1
:1023D0000948FFF73FF8084800214830FFF73AF86E
:1023E000054804214830FFF735F803480821BDE8C7
:1023F00010404830FFF72EB86800002010B52921A2
:102400000648FDF713FF0649002001220870034922
:10241000BDE81040A1F14800FFF716BA40010020C6
:102420000000002070B50646FFF7C8FF154C062EC9
:1024300004F1480518D2DFE806F003080D12181E53
:10244000304600F075F821680DE0304600F070F875
:1024500021680EE0304600F06BF821680FE030464E
:1024600000F066F82968486370BD304600F060F8F7
:102470002968886370BD304600F05AF82968C8633F
:1024800070BD00006800002070B50646FFF796FF9B
:10249000154C062E04F1480518D2DFE806F00308B3
:1024A0000D12181E304600F021F821680DE030466C
:1024B00000F01CF821680EE0304600F017F82168A3
:1024C0000FE0304600F012F82968486370BD3046CE
:1024D00000F00CF82968886370BD304600F006F8FB
:1024E0002968C86370BD00006800002070B50F4EF9
:1024F000002140F26C7506F12A0240F2DC5400BF64
:1025000006EB8103DB8822F81130AB4202D922F8B6
:10251000115003E0A34201D222F81140491CC9B274
:102520000929EDD332F8100070BD000040010020F1
:1025300070B50F4E002140F2DC5406F12A024FF430
:10254000617500BF06EB81039B8822F81130A3421E
:1025500002D922F8114003E0AB4201D222F8115017
:10256000491CC9B20929EDD332F8100070BD000032
:1025700040010020010202030405060708090A0BB6
:102580000C0D0E0F101000000000000000000102F2
:10259000030406070809000000000102030400000C
:1025A000C0250008000000202000000028010008CD
:1025B000E025000820000020F80700004401000882
:1025C000000000000000000000000000000000000B
:1025D00001000000100000000000000000127A005E
:04000005080000ED02
:00000001FF
